{
    "_format": "hh-sol-artifact-1",
    "contractName": "WavePortal",
    "sourceName": "contracts/WavePortal.sol",
    "abi": [
        {
            "inputs": [],
            "stateMutability": "nonpayable",
            "type": "constructor"
        },
        {
            "inputs": [],
            "name": "getTotalWaves",
            "outputs": [
                {
                    "internalType": "uint256",
                    "name": "",
                    "type": "uint256"
                }
            ],
            "stateMutability": "view",
            "type": "function"
        },
        {
            "inputs": [],
            "name": "wave",
            "outputs": [],
            "stateMutability": "nonpayable",
            "type": "function"
        },
        {
            "inputs": [
                {
                    "internalType": "uint256",
                    "name": "",
                    "type": "uint256"
                }
            ],
            "name": "wave_results",
            "outputs": [
                {
                    "internalType": "address",
                    "name": "",
                    "type": "address"
                }
            ],
            "stateMutability": "view",
            "type": "function"
        }
    ],
    "bytecode": "0x608060405234801561001057600080fd5b5061003c6040518060600160405280602b8152602001610be9602b913961004160201b6105151760201c565b6101bb565b6100dd816040516024016100559190610199565b6040516020818303038152906040527f41304fac000000000000000000000000000000000000000000000000000000007bffffffffffffffffffffffffffffffffffffffffffffffffffffffff19166020820180517bffffffffffffffffffffffffffffffffffffffffffffffffffffffff83818316178352505050506100e060201b60201c565b50565b60008151905060006a636f6e736f6c652e6c6f679050602083016000808483855afa5050505050565b600081519050919050565b600082825260208201905092915050565b60005b83811015610143578082015181840152602081019050610128565b60008484015250505050565b6000601f19601f8301169050919050565b600061016b82610109565b6101758185610114565b9350610185818560208601610125565b61018e8161014f565b840191505092915050565b600060208201905081810360008301526101b38184610160565b905092915050565b610a1f806101ca6000396000f3fe608060405234801561001057600080fd5b50600436106100415760003560e01c8063557da7f8146100465780636fe15b44146100765780639a2cdc0814610080575b600080fd5b610060600480360381019061005b919061074a565b61009e565b60405161006d91906107b8565b60405180910390f35b61007e6100dd565b005b61008861030a565b60405161009591906107e2565b60405180910390f35b600181815481106100ae57600080fd5b906000526020600020016000915054906101000a900473ffffffffffffffffffffffffffffffffffffffff1681565b600073ffffffffffffffffffffffffffffffffffffffff166000803373ffffffffffffffffffffffffffffffffffffffff1673ffffffffffffffffffffffffffffffffffffffff16815260200190815260200160002060000160009054906101000a900473ffffffffffffffffffffffffffffffffffffffff1673ffffffffffffffffffffffffffffffffffffffff16036101d6576001339080600181540180825580915050600190039060005260206000200160009091909190916101000a81548173ffffffffffffffffffffffffffffffffffffffff021916908373ffffffffffffffffffffffffffffffffffffffff1602179055505b336000803373ffffffffffffffffffffffffffffffffffffffff1673ffffffffffffffffffffffffffffffffffffffff16815260200190815260200160002060000160006101000a81548173ffffffffffffffffffffffffffffffffffffffff021916908373ffffffffffffffffffffffffffffffffffffffff16021790555060016000803373ffffffffffffffffffffffffffffffffffffffff1673ffffffffffffffffffffffffffffffffffffffff16815260200190815260200160002060010160008282546102a8919061082c565b925050819055506001600260008282546102c2919061082c565b925050819055506103086040518060400160405280600e81526020017f2573206861766520776176656421000000000000000000000000000000000000815250336105ae565b565b600061034d6040518060400160405280601781526020017f5765206861766520256420746f74616c2077617665732100000000000000000081525060025461064a565b60005b60018054905081101561050c5761043b6040518060400160405280600881526020017f557365723a202573000000000000000000000000000000000000000000000000815250600080600185815481106103ad576103ac610860565b5b9060005260206000200160009054906101000a900473ffffffffffffffffffffffffffffffffffffffff1673ffffffffffffffffffffffffffffffffffffffff1673ffffffffffffffffffffffffffffffffffffffff16815260200190815260200160002060000160009054906101000a900473ffffffffffffffffffffffffffffffffffffffff166105ae565b6104f96040518060400160405280601381526020017f4e756d626572206f662077617665733a202564000000000000000000000000008152506000806001858154811061048b5761048a610860565b5b9060005260206000200160009054906101000a900473ffffffffffffffffffffffffffffffffffffffff1673ffffffffffffffffffffffffffffffffffffffff1673ffffffffffffffffffffffffffffffffffffffff1681526020019081526020016000206001015461064a565b80806105049061088f565b915050610350565b50600254905090565b6105ab816040516024016105299190610967565b6040516020818303038152906040527f41304fac000000000000000000000000000000000000000000000000000000007bffffffffffffffffffffffffffffffffffffffffffffffffffffffff19166020820180517bffffffffffffffffffffffffffffffffffffffffffffffffffffffff83818316178352505050506106e6565b50565b61064682826040516024016105c4929190610989565b6040516020818303038152906040527f319af333000000000000000000000000000000000000000000000000000000007bffffffffffffffffffffffffffffffffffffffffffffffffffffffff19166020820180517bffffffffffffffffffffffffffffffffffffffffffffffffffffffff83818316178352505050506106e6565b5050565b6106e282826040516024016106609291906109b9565b6040516020818303038152906040527fb60e72cc000000000000000000000000000000000000000000000000000000007bffffffffffffffffffffffffffffffffffffffffffffffffffffffff19166020820180517bffffffffffffffffffffffffffffffffffffffffffffffffffffffff83818316178352505050506106e6565b5050565b60008151905060006a636f6e736f6c652e6c6f679050602083016000808483855afa5050505050565b600080fd5b6000819050919050565b61072781610714565b811461073257600080fd5b50565b6000813590506107448161071e565b92915050565b6000602082840312156107605761075f61070f565b5b600061076e84828501610735565b91505092915050565b600073ffffffffffffffffffffffffffffffffffffffff82169050919050565b60006107a282610777565b9050919050565b6107b281610797565b82525050565b60006020820190506107cd60008301846107a9565b92915050565b6107dc81610714565b82525050565b60006020820190506107f760008301846107d3565b92915050565b7f4e487b7100000000000000000000000000000000000000000000000000000000600052601160045260246000fd5b600061083782610714565b915061084283610714565b925082820190508082111561085a576108596107fd565b5b92915050565b7f4e487b7100000000000000000000000000000000000000000000000000000000600052603260045260246000fd5b600061089a82610714565b91507fffffffffffffffffffffffffffffffffffffffffffffffffffffffffffffffff82036108cc576108cb6107fd565b5b600182019050919050565b600081519050919050565b600082825260208201905092915050565b60005b838110156109115780820151818401526020810190506108f6565b60008484015250505050565b6000601f19601f8301169050919050565b6000610939826108d7565b61094381856108e2565b93506109538185602086016108f3565b61095c8161091d565b840191505092915050565b60006020820190508181036000830152610981818461092e565b905092915050565b600060408201905081810360008301526109a3818561092e565b90506109b260208301846107a9565b9392505050565b600060408201905081810360008301526109d3818561092e565b90506109e260208301846107d3565b939250505056fea264697066735822122072d04cf84c2393aad82b13023d38a0b255c37dd5aefd24d49ba2cf18181e725264736f6c6343000811003368656c6c6f20576f726c6421204920616d206120636f6e747261637420616e64204920616d20736d617274",
    "linkReferences": {},
    "deployedLinkReferences": {}
}